:020000040000fa
:080000000002040000000000f2
:020000040000fa
:040008000e030000e3
:020000040000fa
:04000c0020030000cd
:020000040000fa
:0400100038030000b1
:020000040000fa
:0400140016030000cf
:020000040000fa
:0400180028030000b9
:020000040000fa
:04001c0030030000ad
:020000040000fa
:040020004003000099
:020000040000fa
:040024008a0400004a
:020000040000fa
:040028008a04000046
:020000040000fa
:04002c008a04000042
:020000040000fa
:040030008a0400003e
:020000040000fa
:04003400460400007e
:020000040000fa
:040038008a04000036
:020000040000fa
:04003c008a04000032
:020000040000fa
:040040008a0400002e
:020000040000fa
:040044008a0400002a
:020000040000fa
:040048008a04000026
:020000040000fa
:04004c008a04000022
:020000040000fa
:040050008a0400001e
:020000040000fa
:04005400c4030000e1
:020000040000fa
:04005800620300003f
:020000040000fa
:04005c008a04000012
:020000040000fa
:040060008a0400000e
:020000040000fa
:040064008a0400000a
:020000040000fa
:040068008a04000006
:020000040000fa
:04006c008a04000002
:020000040000fa
:040070008a040000fe
:020000040000fa
:040074008a040000fa
:020000040000fa
:040078008a040000f6
:020000040000fa
:04007c008a040000f2
:020000040000fa
:040080008a040000ee
:020000040000fa
:040084008a040000ea
:020000040000fa
:040088008a040000e6
:020000040000fa
:04008c008a040000e2
:020000040000fa
:040090008a040000de
:020000040000fa
:040094008a040000da
:020000040000fa
:040098008a040000d6
:020000040000fa
:04009c008a040000d2
:020000040000fa
:0400a0008a040000ce
:020000040000fa
:0400a4008a040000ca
:020000040000fa
:0400a8008a040000c6
:020000040000fa
:0400ac008a040000c2
:020000040000fa
:0400b0008a040000be
:020000040000fa
:0400b4008a040000ba
:020000040000fa
:0400b8008a040000b6
:020000040000fa
:0400bc008a040000b2
:020000040000fa
:0400c0008a040000ae
:020000040000fa
:0400c4008a040000aa
:020000040000fa
:0400c8008a040000a6
:020000040000fa
:0400cc008a040000a2
:020000040000fa
:0400d0008a0400009e
:020000040000fa
:0400d4008a0400009a
:020000040000fa
:0400d8008a04000096
:020000040000fa
:0400dc008a04000092
:020000040000fa
:0400e0008a0400008e
:020000040000fa
:0400e4008a0400008a
:020000040000fa
:0400e8008a04000086
:020000040000fa
:0400ec008a04000082
:020000040000fa
:0400f0008a0400007e
:020000040000fa
:0400f4008a0400007a
:020000040000fa
:0400f8008a04000076
:020000040000fa
:0400fc008a04000072
:020000040000fa
:040100008a0400006d
:020000040000fa
:040104008a04000069
:020000040000fa
:040108008a04000065
:020000040000fa
:04010c008a04000061
:020000040000fa
:040110008a0400005d
:020000040000fa
:040114008a04000059
:020000040000fa
:040118008a04000055
:020000040000fa
:04011c008a04000051
:020000040000fa
:040120008a0400004d
:020000040000fa
:040124008a04000049
:020000040000fa
:040128008a04000045
:020000040000fa
:04012c00300400009b
:020000040000fa
:040130008a0400003d
:020000040000fa
:040134008a04000039
:020000040000fa
:040138008a04000035
:020000040000fa
:04013c008a04000031
:020000040000fa
:040140008a0400002d
:020000040000fa
:040144008a04000029
:020000040000fa
:040148008a04000025
:020000040000fa
:04014c008a04000021
:020000040000fa
:040150008a0400001d
:020000040000fa
:040154008a04000019
:020000040000fa
:040158008a04000015
:020000040000fa
:04015c008a04000011
:020000040000fa
:040160008a0400000d
:020000040000fa
:040164008a04000009
:020000040000fa
:040168008a04000005
:020000040000fa
:04016c008a04000001
:020000040000fa
:040170008a040000fd
:020000040000fa
:040174008a040000f9
:020000040000fa
:040178008a040000f5
:020000040000fa
:04017c008a040000f1
:020000040000fa
:040180008a040000ed
:020000040000fa
:040184008a040000e9
:020000040000fa
:040188008a040000e5
:020000040000fa
:04018c008a040000e1
:020000040000fa
:040190008a040000dd
:020000040000fa
:040194008a040000d9
:020000040000fa
:040198008a040000d5
:020000040000fa
:04019c008a040000d1
:020000040000fa
:0401a0008a040000cd
:020000040000fa
:0401a4008a040000c9
:020000040000fa
:0401a8008a040000c5
:020000040000fa
:0401ac008a040000c1
:020000040000fa
:0401b0008a040000bd
:020000040000fa
:0401b4008a040000b9
:020000040000fa
:0401b8008a040000b5
:020000040000fa
:0401bc008a040000b1
:020000040000fa
:0401c0008a040000ad
:020000040000fa
:0401c4008a040000a9
:020000040000fa
:0401c8008a040000a5
:020000040000fa
:0401cc008a040000a1
:020000040000fa
:0401d0008a0400009d
:020000040000fa
:0401d4008a04000099
:020000040000fa
:0401d8008a04000095
:020000040000fa
:0401dc008a04000091
:020000040000fa
:0401e0008a0400008d
:020000040000fa
:0401e4008a04000089
:020000040000fa
:0401e8008a04000085
:020000040000fa
:0401ec008a04000081
:020000040000fa
:0401f0008a0400007d
:020000040000fa
:0401f4008a04000079
:020000040000fa
:0401f8008a04000075
:020000040000fa
:0401fc008a04000071
:020000040000fa
:040200008a0400006c
:020000040000fa
:040204008a04000068
:020000040000fa
:040208008a04000064
:020000040000fa
:04020c008a04000060
:020000040000fa
:040210008a0400005c
:020000040000fa
:040214008a04000058
:020000040000fa
:040218008a04000054
:020000040000fa
:04021c008a04000050
:020000040000fa
:040220008a0400004c
:020000040000fa
:040224008a04000048
:020000040000fa
:040228008a04000044
:020000040000fa
:04022c008a04000040
:020000040000fa
:040230008a0400003c
:020000040000fa
:040234008a04000038
:020000040000fa
:040238008a04000034
:020000040000fa
:04023c008a04000030
:020000040000fa
:040240008a0400002c
:020000040000fa
:040244008a04000028
:020000040000fa
:040248008a04000024
:020000040000fa
:04024c008a04000020
:020000040000fa
:040250008a0400001c
:020000040000fa
:040254008a04000018
:020000040000fa
:040258008a04000014
:020000040000fa
:04025c008a04000010
:020000040000fa
:040260008a0400000c
:020000040000fa
:040264008a04000008
:020000040000fa
:040268008a04000004
:020000040000fa
:04026c008a04000000
:020000040000fa
:040270008a040000fc
:020000040000fa
:040274008a040000f8
:020000040000fa
:040278008a040000f4
:020000040000fa
:04027c008a040000f0
:020000040000fa
:040280008a040000ec
:020000040000fa
:100400008f0421000eff28000e018800000000006c
:10041000000020000000e000020032000001200087
:1004200020028800140007003c0107000000e000e3
:1004300003003a0040af2000010020000200370016
:100440000000200001002000810f70000100320038
:100450000f000700000020000000e0000200320052
:1004600000000200000000003a0a02000000000044
:100470000040da000000fe00200020000000e00044
:1004800002003200100020009001880000000600e9
:10049000a1028800800478000000eb001f003700f4
:1004a000e284440054a0b4009905ba00e2844400f8
:1004b00054a0b4009906ba00e284440054a0b400e9
:1004c0000006eb00476fde00fd07b200ae018800ba
:1004d000636ce10003003a000ad801000000eb0061
:1004e0000e003700606ce10008003a00004deb00a0
:1004f0000a05e800020039003420ec000af0a000f0
:100500008b05e900f9ff3e00040037006168e10057
:10051000010032000086eb000b00070019c7ba008b
:100520000e04e0001905ba0003003a000a00e000da
:10053000dbff3a0000000600fe07b200ae028800b2
:100540008a047800f5ff37000cd0a300e20f4d00bd
:100550001c00390089027800354dba000a05e80010
:10056000020039003420ec000af0a0008b05e900fd
:100570000f003200254dba000a05e80002003900dc
:100580003420ec000af0a0008b05e90008003200de
:100590000c00e0000600320015cdba000a05e800a4
:1005a000020039003420ec000af0a0008b05e900bd
:1005b0008984e80054a0b4000b00e000e2ff3a0098
:1005c000000006009902ba00055d78008b05e9007d
:1005d000f7ff3200c82ade00055d78008b05e900d0
:1005e000f3ff32000c00e000f1ff320019ddba0029
:1005f000eeff37002e0a040000000000100a04007d
:1006000000000000dc04040000000000fa04040004
:10061000000000000c090400000000003600f80093
:10062000c028a9000000eb00210407003600f800f4
:1006300023040700c048a900100020001c04070084
:100640003600f800c068a900200020001804070048
:100650003600f800c088a90030002000140407000c
:100660003600f800c0a8a9004000200010040700d0
:100670003600f800c608a900700020000c0407002e
:100680003600f80021468000000220000080600053
:100690000000e00003003200c4a8a9009000200080
:1006a0000304070020468000700060000000e000a6
:1006b00003003200c488a900a0002000fc0307004a
:1006c000ffff37003600f800809fbe00829fbe000b
:1006d000849fbe00869fbe000000fa00508080000c
:1006e0000000e000020032005080800000000100a5
:1006f0003180800020808000808f500002003a000e
:100700002188a900190037000188a90010003700ce
:1007100030808000904078008180fb0021118800ab
:100720000000e8003080880031808000d003210084
:10073000808f500002003a00400321003080880082
:100740003180800020808000808f500006003200c1
:100750001111800000202000008060000000e000f7
:10076000ebff320001003700000000000080fa00bb
:100770004f03be004f02be004f01be004f00be003f
:100780003600f900004006003600f800809fbe00e9
:10079000829fbe00849fbe00869fbe000000fa00bc
:1007a000608080000000e000020032006080800075
:1007b000000001000168a9001e00370000808000d1
:1007c000311180008140780001487800018080006c
:1007d00050042100808f500009003200008080000a
:1007e0008000e80010808000808f500004003200fc
:1007f000008080000000e800008088000d003700c5
:100800000180800050042100808f500007003a00d2
:1008100011808000d0032100808f5000030032003f
:10082000d0032100008088000200370010c0b30010
:1008300008f0b70010118000610060000000e000c7
:10084000deff3a000080fa004f03be004f02be00f8
:100850004f01be004f00be003600f9000040060008
:10086000801f78000000fa00101180006200600014
:100870000000e000010032002222a9000828a9009f
:100880000080fa004f007800004006003600f800b3
:10089000809fbe00829fbe00849fbe00869fbe00d8
:1008a0000000fa00808080000000e800808088005e
:1008b00080808000e10f50000600360070808000cc
:1008c0000000e000020032007080800000000100a3
:1008d0001030ef0070042100104078008040e800e4
:1008e00070042100014878006004210011c0b300a9
:1008f000014878000068a9000080fa004f03be009c
:100900004f02be004f01be004f00be003600f9008e
:10091000004006000040da000000fe000000050074
:020000040000fa
:100920000000fa002188a9002168a90080002000a9
:10093000001188002222ef00700020004011880082
:10094000400321003080880040032100208088007f
:10095000d003210010808800d0032100008088008f
:100960000870ef00c04d200007000700a04f2000d6
:10097000140007002168a80021e2a8002342a80073
:100980000080fa00000006000200fa00000f780064
:100990001e0078000000e00003003a00c04d200077
:1009a00050808800020037001e00780050808800c8
:1009b0000080fa00000006000000fa000080fa0043
:1009c000000006000200fa00000f78001e00780008
:1009d0000000e00003003a00a04f20006080880083
:1009e000020037001e007800608088000080fa0056
:1009f000000006000000fa000080fa000000060077
:100a00000200fa000040eb00004f780000000000f8
:100a10001180800000808000808f5000fcff320039
:100a200010808000104f7800108080000000e800e7
:100a3000108088001180800060042100808f5000a9
:100a400002003a00d0032100108088001e40780088
:100a50000080fa00000006000200fa00004f780053
:100a6000000000001c0007000004a2000004e000d9
:100a7000fcff3a00208080001e4878002080800023
:100a80000000e8002080880021808000d003210041
:100a9000808f500002003a0040032100208088002f
:100aa0002188a8000080fa00000006000000fa007b
:100ab00011808000008080000080680000f0a700a6
:100ac0000000ea000000ea004f00de00004078006d
:100ad0000080fa00000006000400fa003180800067
:100ae00011079800218080001e009000808f500028
:100af000060031009e0090002080800000805000a1
:100b00000000e900000f7800050037009e0090000b
:100b1000208080000080500068004000000f7800b6
:100b20001e00780000f0a7000000ea000000ea00c4
:100b30004f00de00004078000080fa000000060050
:100b40000000fa002180800030808000808f5000fb
:100b500009003a00111180000010200000806000a0
:100b600000f0a7000000ea000000ea004f00de00ed
:100b700000407800010037000040eb000080fa00e0
:100b8000000006000400fa000180800011079800b0
:100b9000108080009e009000808f50000600310081
:100ba0009e0090001080800000805000690040008e
:100bb000000f7800040037009e0090001080800035
:100bc00000805000000f7800f00f20009e00780099
:100bd000808f50000200360000c0eb00020037009a
:100be0001e007800004078000080fa000000060037
:100bf0000400fa00318080001107980021808000f5
:100c00001e009000808f5000060031009e00900072
:100c100020808000008050000000e900000f780074
:100c2000050037009e00900020808000008050006a
:100c300068004000000f7800f00f20009e00780050
:100c4000808f50000200360000c0eb000200370029
:100c50001e007800004078000080fa0000000600c6
:100c60000800fa002007980031079800c5ff070028
:100c70000080fb00000f78003e0090009e0f5000a7
:100c800002003100be009000010f78000000eb0070
:100c9000100798000900370059ff0700ae009000c8
:100ca000804878002e0090000000e800200798009f
:100cb0001e0090000000e800100798001e00900041
:100cc0009e0f5000f4ff39001e0078000080fa00eb
:100cd000000006000800fa0020079800310798007d
:100ce000c3ff07000080fb00000f78003e0090006b
:100cf0009e0f500002003100be009000010f7800ee
:100d00000000eb0010079800090037002e0090004b
:100d100010407800ae0090008100e80021079800a4
:100d20004dff07001e0090000000e800100798002b
:100d30001e0090009e0f5000f4ff39001e00780046
:100d40000080fa00000006000400fa000000eb003a
:100d5000000f78008bff070020479800a4ff0700d2
:100d6000304798002e4090000080fb000000e0001b
:100d700003003200e90f5000030032000400370086
:100d80001e20a000040037001e00a0000200370053
:100d90001e10a000000000003e4090000080fb00fc
:100da0000000e00003003200e90f500003003200b1
:100db000040037001e30a000020037001e40a000d3
:100dc000000000001e0078000080fa00000006000d
:100dd0000400fa0010079800118080001e009000a7
:100de000008f4000020037009e007800698f50009d
:100df000600421009e007800808f5000faff3e00c2
:100e00001e007800104078000080fa000000060004
:100e10000000fa005bff07000080fb000000e90013
:100e20004f00de00004078000080fa00000006005d
:100e30000000fa006eff07000080fb000000e900e0
:100e40004f00de00004078000080fa00000006003d
:100e50000000fa00101180000080fa000000060077
:100e60000000fa0062ff07000004e00010003200fa
:100e70003180800020808000808f50000600360086
:100e8000308080008000780020808000008050004a
:100e90000000e90007003700308080008000780003
:100ea0002080800000805000680040000100370072
:100eb0000000eb000080fa00000006000000fa00cd
:100ec00030ff07000004e0001000320011808000b5
:100ed00000808000808f5000060036001080800067
:100ee0008000780000808000008050000000e90051
:100ef00007003700108080008000780000808000ac
:100f00000080500068004000010037000000eb0046
:100f10000080fa00000006000000fa0021e2a800ac
:100f20002342a8000080fa00000006000000fa003a
:100f300021e2a9002342a9000080fa000000060077
:100f40000000fa00003a80000080fa00000006006d
:100f50000200fa00faff0700000f78001e00780078
:100f6000240007000004e000020032000000280016
:100f7000710007001e0078002a0007000004e0004e
:100f800002003200000024006b0007001e00780001
:100f9000320007000004e0000200320000202000c0
:100fa000650007001e0078003a0007000004e0001a
:100fb00002003200000820005f0007001e007800d9
:100fc000420007000004e00002003200000420009c
:100fd000590007001e0078004a0007000004e000e6
:100fe0000200320000012000530007000080fa00d8
:100ff000000006000400fa00100798000040eb0013
:10100000004f78001e0090000000e00002003d004c
:1010100010c0b300004f78001e4078000080fa0036
:10102000000006000400fa00100798000040eb00e2
:10103000004f78009e0090000000240000806000b7
:101040000000e0000200320010c0b300004f780042
:101050001e4078000080fa00000006000400fa003c
:10106000100798000040eb00004f78009e009000b1
:1010700000202000008060000000e000020032003c
:1010800010c0b300004f78001e4078000080fa00c6
:10109000000006000400fa00100798000040eb0072
:1010a000004f78009e009000000820000080600043
:1010b0000000e0000200320010c0b300004f7800d2
:1010c0001e4078000080fa00000006000400fa00cc
:1010d000100798000040eb00004f78009e00900041
:1010e00000042000008060000000e00002003200e8
:1010f00010c0b300004f78001e4078000080fa0056
:10110000000006000400fa00100798000040eb0001
:10111000004f78001e009000700060000000e000aa
:101120000200320010c0b300004f78001e4078006b
:101130000080fa00000006000200fa00000f7800ac
:101140009e80ea00003a800000806000003a88003b
:101150000080fa00000006000000fa004027ef00bf
:101160000080fa00000006000000fa000021ef00f5
:101170004007270010088800000228002008880087
:10118000708080000000e00002003a00c090200063
:10119000240007000068a9002068a800600421005e
:1011a0008040eb00014878000080fa000000060053
:1011b0000200fa00000f78009e00780011088800f5
:1011c000600421008040eb00014878000080fa00b4
:1011d000000006000000fa00100880000080fa00fd
:1011e000000006000200fa00000f78009e00780060
:1011f00001088800600421008040eb00014878006d
:101200000080fa00000006000000fa0000088000dc
:101210000080fa00000006000000fa000080fa00da
:10122000000006000200fa00000f78002068a90004
:101230009e007800718088002068a8000080fa0075
:10124000000006000000fa00600421008040eb006e
:10125000014878002068a80005e1a8000080fa0095
:10126000000006000000fa0005e1a9002068a900be
:101270000080fa00000006000200fa00600421006d
:10128000104f78001e4078000004e0000300320098
:10129000600421008040eb00014878001e40780087
:1012a0000080fa00000006000000fa00700421002f
:1012b000104078000080fb000080fa00000006006b
:1012c0000000fa00700421008040eb000148780023
:1012d0000080fa00000006000000fa00042eef0073
:1012e000142eef00242eef00342eef00442eef00da
:1012f000542eef00642eef0030f9210000708800ba
:10130000f0ff230080708800f0f723000071880050
:10131000001620008071880000002f0000728800f5
:101320003000200080728800003c2000007388009c
:101330000c2eef001c2eef002c2eef003c2eef00a9
:101340004c2eef005c2eef006c2eef000a2eef000b
:101350001a2eef002a2eef003a2eef004a2eef0051
:101360005a2eef006a2eef00062eef00162eef0029
:10137000262eef00362eef00462eef00562eef0001
:10138000662eef003081210070708800f010200080
:10139000f0708800708020007071880000002f00bd
:1013a00070728800113a8000f00b2000008160000c
:1013b000600420007105200023742000804978001b
:1013c000814978008249780051348000f00f2c0068
:1013d000008060000080a00050348800213680002a
:1013e00000f82f0080806000600320000100700082
:1013f00020368800103a8000000178000260a000ca
:1014000060042000710520002374200080497800ca
:1014100081497800824978000080fa0000000600c7
:101420000000fa00a07080004e00de006140600005
:101430000004a200614060000080fb0061006000c9
:101440004e00dd00a170800001e0a10001007000ed
:10145000a07088000080fa00000006000000fa007a
:1014600030118000004078007bfd07000080fa000a
:10147000000006000000fa0039000700e0a220008a
:1014800050fd070000a120003ffd070000a1200043
:1014900064ff07006bff070040d42100c10120005a
:1014a0007500070080ff0700004078006afd070014
:1014b000f9ff37000000fa0000042300203a8800fa
:1014c0004827ef004e27ef0020032000303a880025
:1014d0006027ef006227ef006427ef006627ef0028
:1014e0006c27ef007200200080072000a109200077
:1014f000337420008049780081497800824978005f
:101500000001eb006004200071052000237420001e
:101510008049780081497800824978000080fa008b
:10152000000006000200fa00000f7800210280008f
:10153000200f2000008060001e0070002002880044
:101540000080fa00000006000000fa00c3e8a800ce
:1015500000000000000000000080fa00000006000b
:101560000000fa005cff070008000700d1ff070039
:10157000ebfc0700fcfe0700f3ff07000002200061
:10158000e8ff07000080fa00000006000000fa00f3
:1015900001438000f0f82f00008060000040a000b0
:1015a000004388003142800080ff2f0000806000ef
:1015b0000000a0003042880021428000f0ff280097
:1015c0000080600000c0a00020428800014280002e
:1015d000f0ff28000080600000c0a00000428800ea
:0815e0000080fa000000060083
:020000040000fa
:1015e800141000002000000080000000121000000d
:1015f8000200000082000000ffff0000341000001d
:101608001200000080000000001000000e00000022
:10161800800000004610000002000000800000006a
:101628000e10000004000000800000000000000010
:020000040000fa
:101638000000fa009dff07000080fa000000060085
:101648000000fa00003a80000080fa00000006005e
:101658000000fa003cfe07000080fa0000000600c7
:101668000000fa00bafe07000080fa000000060039
:020000040000fa
:10167800f03fb1000180b10006003500ee0309001b
:1016880000000000403fb1000180b100fbff3d00b9
:101698001000b000203fb0000200350000800900b3
:0816a800000000000000060034
:020000040000fa
:1016b000000f78009e00780091808800ffff3700bf
:1016c0000000fa004001210080077800c0022100dc
:0c16d000000188000080fa000000060005
:020000040000fa
:020000040005f5
:045fe000ceff0000f0
:020000040000fa
:020000040005f5
:045fe400ffff0000bb
:020000040000fa
:020000040005f5
:045fe8007fff000037
:020000040000fa
:020000040005f5
:045fec00bfff0000f3
:020000040000fa
:020000040005f5
:045ff0007fff00002f
:020000040000fa
:020000040005f5
:045ff400ffff0000ab
:00000001FF
